{
    "_format": "hh-sol-artifact-1",
    "contractName": "Nft",
    "sourceName": "contracts/Nft.sol",
    "abi": [
        {
            "inputs": [
                {
                    "internalType": "address",
                    "name": "initialOwner",
                    "type": "address"
                }
            ],
            "stateMutability": "nonpayable",
            "type": "constructor"
        },
        {
            "inputs": [
                {
                    "internalType": "address",
                    "name": "sender",
                    "type": "address"
                },
                {
                    "internalType": "uint256",
                    "name": "tokenId",
                    "type": "uint256"
                },
                {
                    "internalType": "address",
                    "name": "owner",
                    "type": "address"
                }
            ],
            "name": "ERC721IncorrectOwner",
            "type": "error"
        },
        {
            "inputs": [
                {
                    "internalType": "address",
                    "name": "operator",
                    "type": "address"
                },
                {
                    "internalType": "uint256",
                    "name": "tokenId",
                    "type": "uint256"
                }
            ],
            "name": "ERC721InsufficientApproval",
            "type": "error"
        },
        {
            "inputs": [
                {
                    "internalType": "address",
                    "name": "approver",
                    "type": "address"
                }
            ],
            "name": "ERC721InvalidApprover",
            "type": "error"
        },
        {
            "inputs": [
                {
                    "internalType": "address",
                    "name": "operator",
                    "type": "address"
                }
            ],
            "name": "ERC721InvalidOperator",
            "type": "error"
        },
        {
            "inputs": [
                {
                    "internalType": "address",
                    "name": "owner",
                    "type": "address"
                }
            ],
            "name": "ERC721InvalidOwner",
            "type": "error"
        },
        {
            "inputs": [
                {
                    "internalType": "address",
                    "name": "receiver",
                    "type": "address"
                }
            ],
            "name": "ERC721InvalidReceiver",
            "type": "error"
        },
        {
            "inputs": [
                {
                    "internalType": "address",
                    "name": "sender",
                    "type": "address"
                }
            ],
            "name": "ERC721InvalidSender",
            "type": "error"
        },
        {
            "inputs": [
                {
                    "internalType": "uint256",
                    "name": "tokenId",
                    "type": "uint256"
                }
            ],
            "name": "ERC721NonexistentToken",
            "type": "error"
        },
        {
            "inputs": [
                {
                    "internalType": "address",
                    "name": "owner",
                    "type": "address"
                }
            ],
            "name": "OwnableInvalidOwner",
            "type": "error"
        },
        {
            "inputs": [
                {
                    "internalType": "address",
                    "name": "account",
                    "type": "address"
                }
            ],
            "name": "OwnableUnauthorizedAccount",
            "type": "error"
        },
        {
            "anonymous": false,
            "inputs": [
                {
                    "indexed": true,
                    "internalType": "address",
                    "name": "owner",
                    "type": "address"
                },
                {
                    "indexed": true,
                    "internalType": "address",
                    "name": "approved",
                    "type": "address"
                },
                {
                    "indexed": true,
                    "internalType": "uint256",
                    "name": "tokenId",
                    "type": "uint256"
                }
            ],
            "name": "Approval",
            "type": "event"
        },
        {
            "anonymous": false,
            "inputs": [
                {
                    "indexed": true,
                    "internalType": "address",
                    "name": "owner",
                    "type": "address"
                },
                {
                    "indexed": true,
                    "internalType": "address",
                    "name": "operator",
                    "type": "address"
                },
                {
                    "indexed": false,
                    "internalType": "bool",
                    "name": "approved",
                    "type": "bool"
                }
            ],
            "name": "ApprovalForAll",
            "type": "event"
        },
        {
            "anonymous": false,
            "inputs": [
                {
                    "indexed": true,
                    "internalType": "address",
                    "name": "previousOwner",
                    "type": "address"
                },
                {
                    "indexed": true,
                    "internalType": "address",
                    "name": "newOwner",
                    "type": "address"
                }
            ],
            "name": "OwnershipTransferred",
            "type": "event"
        },
        {
            "anonymous": false,
            "inputs": [
                {
                    "indexed": true,
                    "internalType": "address",
                    "name": "from",
                    "type": "address"
                },
                {
                    "indexed": true,
                    "internalType": "address",
                    "name": "to",
                    "type": "address"
                },
                {
                    "indexed": true,
                    "internalType": "uint256",
                    "name": "tokenId",
                    "type": "uint256"
                }
            ],
            "name": "Transfer",
            "type": "event"
        },
        {
            "inputs": [
                {
                    "internalType": "address",
                    "name": "to",
                    "type": "address"
                },
                {
                    "internalType": "uint256",
                    "name": "tokenId",
                    "type": "uint256"
                }
            ],
            "name": "approve",
            "outputs": [],
            "stateMutability": "nonpayable",
            "type": "function"
        },
        {
            "inputs": [
                {
                    "internalType": "address",
                    "name": "owner",
                    "type": "address"
                }
            ],
            "name": "balanceOf",
            "outputs": [
                {
                    "internalType": "uint256",
                    "name": "",
                    "type": "uint256"
                }
            ],
            "stateMutability": "view",
            "type": "function"
        },
        {
            "inputs": [
                {
                    "internalType": "uint256",
                    "name": "_tokenId",
                    "type": "uint256"
                }
            ],
            "name": "buyNft",
            "outputs": [],
            "stateMutability": "payable",
            "type": "function"
        },
        {
            "inputs": [
                {
                    "internalType": "string",
                    "name": "_nftProductImage",
                    "type": "string"
                },
                {
                    "internalType": "string",
                    "name": "_userName",
                    "type": "string"
                },
                {
                    "internalType": "uint256",
                    "name": "_price",
                    "type": "uint256"
                }
            ],
            "name": "createNft",
            "outputs": [],
            "stateMutability": "nonpayable",
            "type": "function"
        },
        {
            "inputs": [
                {
                    "internalType": "uint256",
                    "name": "_tokenId",
                    "type": "uint256"
                }
            ],
            "name": "deleteNft",
            "outputs": [],
            "stateMutability": "nonpayable",
            "type": "function"
        },
        {
            "inputs": [
                {
                    "internalType": "uint256",
                    "name": "_tokenId",
                    "type": "uint256"
                },
                {
                    "internalType": "string",
                    "name": "_nftProductImage",
                    "type": "string"
                },
                {
                    "internalType": "string",
                    "name": "_userName",
                    "type": "string"
                },
                {
                    "internalType": "uint256",
                    "name": "_price",
                    "type": "uint256"
                }
            ],
            "name": "editNft",
            "outputs": [],
            "stateMutability": "nonpayable",
            "type": "function"
        },
        {
            "inputs": [
                {
                    "internalType": "uint256",
                    "name": "tokenId",
                    "type": "uint256"
                }
            ],
            "name": "getApproved",
            "outputs": [
                {
                    "internalType": "address",
                    "name": "",
                    "type": "address"
                }
            ],
            "stateMutability": "view",
            "type": "function"
        },
        {
            "inputs": [
                {
                    "internalType": "uint256",
                    "name": "_tokenId",
                    "type": "uint256"
                }
            ],
            "name": "getNftDetails",
            "outputs": [
                {
                    "components": [
                        {
                            "internalType": "string",
                            "name": "nftProductImage",
                            "type": "string"
                        },
                        {
                            "internalType": "string",
                            "name": "userName",
                            "type": "string"
                        },
                        {
                            "internalType": "address",
                            "name": "sellerAddress",
                            "type": "address"
                        },
                        {
                            "internalType": "uint256",
                            "name": "price",
                            "type": "uint256"
                        }
                    ],
                    "internalType": "struct Nft.NftModel",
                    "name": "",
                    "type": "tuple"
                }
            ],
            "stateMutability": "view",
            "type": "function"
        },
        {
            "inputs": [
                {
                    "internalType": "address",
                    "name": "owner",
                    "type": "address"
                },
                {
                    "internalType": "address",
                    "name": "operator",
                    "type": "address"
                }
            ],
            "name": "isApprovedForAll",
            "outputs": [
                {
                    "internalType": "bool",
                    "name": "",
                    "type": "bool"
                }
            ],
            "stateMutability": "view",
            "type": "function"
        },
        {
            "inputs": [],
            "name": "name",
            "outputs": [
                {
                    "internalType": "string",
                    "name": "",
                    "type": "string"
                }
            ],
            "stateMutability": "view",
            "type": "function"
        },
        {
            "inputs": [],
            "name": "nextTokenId",
            "outputs": [
                {
                    "internalType": "uint256",
                    "name": "",
                    "type": "uint256"
                }
            ],
            "stateMutability": "view",
            "type": "function"
        },
        {
            "inputs": [
                {
                    "internalType": "uint256",
                    "name": "",
                    "type": "uint256"
                }
            ],
            "name": "nftModels",
            "outputs": [
                {
                    "internalType": "string",
                    "name": "nftProductImage",
                    "type": "string"
                },
                {
                    "internalType": "string",
                    "name": "userName",
                    "type": "string"
                },
                {
                    "internalType": "address",
                    "name": "sellerAddress",
                    "type": "address"
                },
                {
                    "internalType": "uint256",
                    "name": "price",
                    "type": "uint256"
                }
            ],
            "stateMutability": "view",
            "type": "function"
        },
        {
            "inputs": [],
            "name": "owner",
            "outputs": [
                {
                    "internalType": "address",
                    "name": "",
                    "type": "address"
                }
            ],
            "stateMutability": "view",
            "type": "function"
        },
        {
            "inputs": [
                {
                    "internalType": "uint256",
                    "name": "tokenId",
                    "type": "uint256"
                }
            ],
            "name": "ownerOf",
            "outputs": [
                {
                    "internalType": "address",
                    "name": "",
                    "type": "address"
                }
            ],
            "stateMutability": "view",
            "type": "function"
        },
        {
            "inputs": [],
            "name": "renounceOwnership",
            "outputs": [],
            "stateMutability": "nonpayable",
            "type": "function"
        },
        {
            "inputs": [
                {
                    "internalType": "address",
                    "name": "from",
                    "type": "address"
                },
                {
                    "internalType": "address",
                    "name": "to",
                    "type": "address"
                },
                {
                    "internalType": "uint256",
                    "name": "tokenId",
                    "type": "uint256"
                }
            ],
            "name": "safeTransferFrom",
            "outputs": [],
            "stateMutability": "nonpayable",
            "type": "function"
        },
        {
            "inputs": [
                {
                    "internalType": "address",
                    "name": "from",
                    "type": "address"
                },
                {
                    "internalType": "address",
                    "name": "to",
                    "type": "address"
                },
                {
                    "internalType": "uint256",
                    "name": "tokenId",
                    "type": "uint256"
                },
                {
                    "internalType": "bytes",
                    "name": "data",
                    "type": "bytes"
                }
            ],
            "name": "safeTransferFrom",
            "outputs": [],
            "stateMutability": "nonpayable",
            "type": "function"
        },
        {
            "inputs": [
                {
                    "internalType": "uint256",
                    "name": "_tokenId",
                    "type": "uint256"
                },
                {
                    "internalType": "uint256",
                    "name": "_price",
                    "type": "uint256"
                }
            ],
            "name": "sellNft",
            "outputs": [],
            "stateMutability": "nonpayable",
            "type": "function"
        },
        {
            "inputs": [
                {
                    "internalType": "address",
                    "name": "operator",
                    "type": "address"
                },
                {
                    "internalType": "bool",
                    "name": "approved",
                    "type": "bool"
                }
            ],
            "name": "setApprovalForAll",
            "outputs": [],
            "stateMutability": "nonpayable",
            "type": "function"
        },
        {
            "inputs": [
                {
                    "internalType": "bytes4",
                    "name": "interfaceId",
                    "type": "bytes4"
                }
            ],
            "name": "supportsInterface",
            "outputs": [
                {
                    "internalType": "bool",
                    "name": "",
                    "type": "bool"
                }
            ],
            "stateMutability": "view",
            "type": "function"
        },
        {
            "inputs": [],
            "name": "symbol",
            "outputs": [
                {
                    "internalType": "string",
                    "name": "",
                    "type": "string"
                }
            ],
            "stateMutability": "view",
            "type": "function"
        },
        {
            "inputs": [
                {
                    "internalType": "uint256",
                    "name": "tokenId",
                    "type": "uint256"
                }
            ],
            "name": "tokenURI",
            "outputs": [
                {
                    "internalType": "string",
                    "name": "",
                    "type": "string"
                }
            ],
            "stateMutability": "view",
            "type": "function"
        },
        {
            "inputs": [],
            "name": "totalNfts",
            "outputs": [
                {
                    "internalType": "uint256",
                    "name": "",
                    "type": "uint256"
                }
            ],
            "stateMutability": "view",
            "type": "function"
        },
        {
            "inputs": [
                {
                    "internalType": "address",
                    "name": "from",
                    "type": "address"
                },
                {
                    "internalType": "address",
                    "name": "to",
                    "type": "address"
                },
                {
                    "internalType": "uint256",
                    "name": "tokenId",
                    "type": "uint256"
                }
            ],
            "name": "transferFrom",
            "outputs": [],
            "stateMutability": "nonpayable",
            "type": "function"
        },
        {
            "inputs": [
                {
                    "internalType": "address",
                    "name": "newOwner",
                    "type": "address"
                }
            ],
            "name": "transferOwnership",
            "outputs": [],
            "stateMutability": "nonpayable",
            "type": "function"
        }
    ],
    "bytecode": "0x60806040523480156200001157600080fd5b5060405162003b8338038062003b83833981810160405281019062000037919062000288565b806040518060400160405280600781526020017f4e46544c495354000000000000000000000000000000000000000000000000008152506040518060400160405280600381526020017f4e464c00000000000000000000000000000000000000000000000000000000008152508160009081620000b5919062000534565b508060019081620000c7919062000534565b505050600073ffffffffffffffffffffffffffffffffffffffff168173ffffffffffffffffffffffffffffffffffffffff16036200013f5760006040517f1e4fbdf70000000000000000000000000000000000000000000000000000000081526004016200013691906200062c565b60405180910390fd5b62000150816200015860201b60201c565b505062000649565b6000600660009054906101000a900473ffffffffffffffffffffffffffffffffffffffff16905081600660006101000a81548173ffffffffffffffffffffffffffffffffffffffff021916908373ffffffffffffffffffffffffffffffffffffffff1602179055508173ffffffffffffffffffffffffffffffffffffffff168173ffffffffffffffffffffffffffffffffffffffff167f8be0079c531659141344cd1fd0a4f28419497f9722a3daafe3b4186f6b6457e060405160405180910390a35050565b600080fd5b600073ffffffffffffffffffffffffffffffffffffffff82169050919050565b6000620002508262000223565b9050919050565b620002628162000243565b81146200026e57600080fd5b50565b600081519050620002828162000257565b92915050565b600060208284031215620002a157620002a06200021e565b5b6000620002b18482850162000271565b91505092915050565b600081519050919050565b7f4e487b7100000000000000000000000000000000000000000000000000000000600052604160045260246000fd5b7f4e487b7100000000000000000000000000000000000000000000000000000000600052602260045260246000fd5b600060028204905060018216806200033c57607f821691505b602082108103620003525762000351620002f4565b5b50919050565b60008190508160005260206000209050919050565b60006020601f8301049050919050565b600082821b905092915050565b600060088302620003bc7fffffffffffffffffffffffffffffffffffffffffffffffffffffffffffffffff826200037d565b620003c886836200037d565b95508019841693508086168417925050509392505050565b6000819050919050565b6000819050919050565b6000620004156200040f6200040984620003e0565b620003ea565b620003e0565b9050919050565b6000819050919050565b6200043183620003f4565b6200044962000440826200041c565b8484546200038a565b825550505050565b600090565b6200046062000451565b6200046d81848462000426565b505050565b5b8181101562000495576200048960008262000456565b60018101905062000473565b5050565b601f821115620004e457620004ae8162000358565b620004b9846200036d565b81016020851015620004c9578190505b620004e1620004d8856200036d565b83018262000472565b50505b505050565b600082821c905092915050565b60006200050960001984600802620004e9565b1980831691505092915050565b6000620005248383620004f6565b9150826002028217905092915050565b6200053f82620002ba565b67ffffffffffffffff8111156200055b576200055a620002c5565b5b62000567825462000323565b6200057482828562000499565b600060209050601f831160018114620005ac576000841562000597578287015190505b620005a3858262000516565b86555062000613565b601f198416620005bc8662000358565b60005b82811015620005e657848901518255600182019150602085019450602081019050620005bf565b8683101562000606578489015162000602601f891682620004f6565b8355505b6001600288020188555050505b505050505050565b620006268162000243565b82525050565b60006020820190506200064360008301846200061b565b92915050565b61352a80620006596000396000f3fe6080604052600436106101665760003560e01c8063715018a6116100d1578063c87b56dd1161008a578063e985e9c511610064578063e985e9c514610542578063f1db04481461057f578063f2fde38b146105a8578063f6b157a8146105d157610166565b8063c87b56dd14610488578063df6be7cb146104c5578063e85cd7481461050557610166565b8063715018a61461039e57806375794a3c146103b55780638da5cb5b146103e057806395d89b411461040b578063a22cb46514610436578063b88d4fde1461045f57610166565b8063243adbdd11610123578063243adbdd1461028d57806342842e0e146102a95780635208eb09146102d2578063587947bd146102fb5780636352211e1461032457806370a082311461036157610166565b806301ffc9a71461016b57806306fdde03146101a8578063081812fc146101d3578063095ea7b3146102105780630d4f9ddb1461023957806323b872dd14610264575b600080fd5b34801561017757600080fd5b50610192600480360381019061018d91906125c3565b6105fa565b60405161019f919061260b565b60405180910390f35b3480156101b457600080fd5b506101bd6106dc565b6040516101ca91906126b6565b60405180910390f35b3480156101df57600080fd5b506101fa60048036038101906101f5919061270e565b61076e565b604051610207919061277c565b60405180910390f35b34801561021c57600080fd5b50610237600480360381019061023291906127c3565b61078a565b005b34801561024557600080fd5b5061024e6107a0565b60405161025b9190612812565b60405180910390f35b34801561027057600080fd5b5061028b6004803603810190610286919061282d565b6107aa565b005b6102a760048036038101906102a2919061270e565b6108ac565b005b3480156102b557600080fd5b506102d060048036038101906102cb919061282d565b610a42565b005b3480156102de57600080fd5b506102f960048036038101906102f49190612880565b610a62565b005b34801561030757600080fd5b50610322600480360381019061031d91906129f5565b610af7565b005b34801561033057600080fd5b5061034b6004803603810190610346919061270e565b610bf0565b604051610358919061277c565b60405180910390f35b34801561036d57600080fd5b5061038860048036038101906103839190612a80565b610c02565b6040516103959190612812565b60405180910390f35b3480156103aa57600080fd5b506103b3610cbc565b005b3480156103c157600080fd5b506103ca610cd0565b6040516103d79190612812565b60405180910390f35b3480156103ec57600080fd5b506103f5610cd6565b604051610402919061277c565b60405180910390f35b34801561041757600080fd5b50610420610d00565b60405161042d91906126b6565b60405180910390f35b34801561044257600080fd5b5061045d60048036038101906104589190612ad9565b610d92565b005b34801561046b57600080fd5b5061048660048036038101906104819190612bba565b610da8565b005b34801561049457600080fd5b506104af60048036038101906104aa919061270e565b610dc5565b6040516104bc91906126b6565b60405180910390f35b3480156104d157600080fd5b506104ec60048036038101906104e7919061270e565b610e2e565b6040516104fc9493929190612c3d565b60405180910390f35b34801561051157600080fd5b5061052c6004803603810190610527919061270e565b610f8e565b6040516105399190612d62565b60405180910390f35b34801561054e57600080fd5b5061056960048036038101906105649190612d84565b61113f565b604051610576919061260b565b60405180910390f35b34801561058b57600080fd5b506105a660048036038101906105a19190612dc4565b6111d3565b005b3480156105b457600080fd5b506105cf60048036038101906105ca9190612a80565b611294565b005b3480156105dd57600080fd5b506105f860048036038101906105f3919061270e565b61131a565b005b60007f80ac58cd000000000000000000000000000000000000000000000000000000007bffffffffffffffffffffffffffffffffffffffffffffffffffffffff1916827bffffffffffffffffffffffffffffffffffffffffffffffffffffffff191614806106c557507f5b5e139f000000000000000000000000000000000000000000000000000000007bffffffffffffffffffffffffffffffffffffffffffffffffffffffff1916827bffffffffffffffffffffffffffffffffffffffffffffffffffffffff1916145b806106d557506106d482611401565b5b9050919050565b6060600080546106eb90612e92565b80601f016020809104026020016040519081016040528092919081815260200182805461071790612e92565b80156107645780601f1061073957610100808354040283529160200191610764565b820191906000526020600020905b81548152906001019060200180831161074757829003601f168201915b5050505050905090565b60006107798261146b565b50610783826114f3565b9050919050565b61079c8282610797611530565b611538565b5050565b6000600854905090565b600073ffffffffffffffffffffffffffffffffffffffff168273ffffffffffffffffffffffffffffffffffffffff160361081c5760006040517f64a0ae92000000000000000000000000000000000000000000000000000000008152600401610813919061277c565b60405180910390fd5b6000610830838361082b611530565b61154a565b90508373ffffffffffffffffffffffffffffffffffffffff168173ffffffffffffffffffffffffffffffffffffffff16146108a6578382826040517f64283d7b00000000000000000000000000000000000000000000000000000000815260040161089d93929190612ec3565b60405180910390fd5b50505050565b60006007600083815260200190815260200160002090508060020160009054906101000a900473ffffffffffffffffffffffffffffffffffffffff1673ffffffffffffffffffffffffffffffffffffffff1661090783610bf0565b73ffffffffffffffffffffffffffffffffffffffff161461095d576040517f08c379a000000000000000000000000000000000000000000000000000000000815260040161095490612f46565b60405180910390fd5b80600301543410156109a4576040517f08c379a000000000000000000000000000000000000000000000000000000000815260040161099b90612fb2565b60405180910390fd5b6109d38160020160009054906101000a900473ffffffffffffffffffffffffffffffffffffffff163384611764565b8060020160009054906101000a900473ffffffffffffffffffffffffffffffffffffffff1673ffffffffffffffffffffffffffffffffffffffff166108fc349081150290604051600060405180830381858888f19350505050158015610a3d573d6000803e3d6000fd5b505050565b610a5d83838360405180602001604052806000815250610da8565b505050565b3373ffffffffffffffffffffffffffffffffffffffff16610a8283610bf0565b73ffffffffffffffffffffffffffffffffffffffff1614610ad8576040517f08c379a0000000000000000000000000000000000000000000000000000000008152600401610acf90613044565b60405180910390fd5b8060076000848152602001908152602001600020600301819055505050565b60006008549050610b0833826118d1565b60405180608001604052808581526020018481526020013373ffffffffffffffffffffffffffffffffffffffff16815260200183815250600760008381526020019081526020016000206000820151816000019081610b679190613210565b506020820151816001019081610b7d9190613210565b5060408201518160020160006101000a81548173ffffffffffffffffffffffffffffffffffffffff021916908373ffffffffffffffffffffffffffffffffffffffff1602179055506060820151816003015590505060086000815480929190610be590613311565b919050555050505050565b6000610bfb8261146b565b9050919050565b60008073ffffffffffffffffffffffffffffffffffffffff168273ffffffffffffffffffffffffffffffffffffffff1603610c755760006040517f89c62b64000000000000000000000000000000000000000000000000000000008152600401610c6c919061277c565b60405180910390fd5b600360008373ffffffffffffffffffffffffffffffffffffffff1673ffffffffffffffffffffffffffffffffffffffff168152602001908152602001600020549050919050565b610cc46118ef565b610cce6000611976565b565b60085481565b6000600660009054906101000a900473ffffffffffffffffffffffffffffffffffffffff16905090565b606060018054610d0f90612e92565b80601f0160208091040260200160405190810160405280929190818152602001828054610d3b90612e92565b8015610d885780601f10610d5d57610100808354040283529160200191610d88565b820191906000526020600020905b815481529060010190602001808311610d6b57829003601f168201915b5050505050905090565b610da4610d9d611530565b8383611a3c565b5050565b610db38484846107aa565b610dbf84848484611bab565b50505050565b6060610dd08261146b565b506000610ddb611d62565b90506000815111610dfb5760405180602001604052806000815250610e26565b80610e0584611d79565b604051602001610e16929190613395565b6040516020818303038152906040525b915050919050565b6007602052806000526040600020600091509050806000018054610e5190612e92565b80601f0160208091040260200160405190810160405280929190818152602001828054610e7d90612e92565b8015610eca5780601f10610e9f57610100808354040283529160200191610eca565b820191906000526020600020905b815481529060010190602001808311610ead57829003601f168201915b505050505090806001018054610edf90612e92565b80601f0160208091040260200160405190810160405280929190818152602001828054610f0b90612e92565b8015610f585780601f10610f2d57610100808354040283529160200191610f58565b820191906000526020600020905b815481529060010190602001808311610f3b57829003601f168201915b5050505050908060020160009054906101000a900473ffffffffffffffffffffffffffffffffffffffff16908060030154905084565b610f966124bc565b60076000838152602001908152602001600020604051806080016040529081600082018054610fc490612e92565b80601f0160208091040260200160405190810160405280929190818152602001828054610ff090612e92565b801561103d5780601f106110125761010080835404028352916020019161103d565b820191906000526020600020905b81548152906001019060200180831161102057829003601f168201915b5050505050815260200160018201805461105690612e92565b80601f016020809104026020016040519081016040528092919081815260200182805461108290612e92565b80156110cf5780601f106110a4576101008083540402835291602001916110cf565b820191906000526020600020905b8154815290600101906020018083116110b257829003601f168201915b505050505081526020016002820160009054906101000a900473ffffffffffffffffffffffffffffffffffffffff1673ffffffffffffffffffffffffffffffffffffffff1673ffffffffffffffffffffffffffffffffffffffff1681526020016003820154815250509050919050565b6000600560008473ffffffffffffffffffffffffffffffffffffffff1673ffffffffffffffffffffffffffffffffffffffff16815260200190815260200160002060008373ffffffffffffffffffffffffffffffffffffffff1673ffffffffffffffffffffffffffffffffffffffff16815260200190815260200160002060009054906101000a900460ff16905092915050565b3373ffffffffffffffffffffffffffffffffffffffff166111f385610bf0565b73ffffffffffffffffffffffffffffffffffffffff1614611249576040517f08c379a000000000000000000000000000000000000000000000000000000000815260040161124090613044565b60405180910390fd5b6000600760008681526020019081526020016000209050838160000190816112719190613210565b50828160010190816112839190613210565b508181600301819055505050505050565b61129c6118ef565b600073ffffffffffffffffffffffffffffffffffffffff168173ffffffffffffffffffffffffffffffffffffffff160361130e5760006040517f1e4fbdf7000000000000000000000000000000000000000000000000000000008152600401611305919061277c565b60405180910390fd5b61131781611976565b50565b3373ffffffffffffffffffffffffffffffffffffffff1661133a82610bf0565b73ffffffffffffffffffffffffffffffffffffffff1614611390576040517f08c379a000000000000000000000000000000000000000000000000000000000815260040161138790613044565b60405180910390fd5b61139981611e47565b60076000828152602001908152602001600020600080820160006113bd91906124fa565b6001820160006113cd91906124fa565b6002820160006101000a81549073ffffffffffffffffffffffffffffffffffffffff02191690556003820160009055505050565b60007f01ffc9a7000000000000000000000000000000000000000000000000000000007bffffffffffffffffffffffffffffffffffffffffffffffffffffffff1916827bffffffffffffffffffffffffffffffffffffffffffffffffffffffff1916149050919050565b60008061147783611ecd565b9050600073ffffffffffffffffffffffffffffffffffffffff168173ffffffffffffffffffffffffffffffffffffffff16036114ea57826040517f7e2732890000000000000000000000000000000000000000000000000000000081526004016114e19190612812565b60405180910390fd5b80915050919050565b60006004600083815260200190815260200160002060009054906101000a900473ffffffffffffffffffffffffffffffffffffffff169050919050565b600033905090565b6115458383836001611f0a565b505050565b60008061155684611ecd565b9050600073ffffffffffffffffffffffffffffffffffffffff168373ffffffffffffffffffffffffffffffffffffffff1614611598576115978184866120cf565b5b600073ffffffffffffffffffffffffffffffffffffffff168173ffffffffffffffffffffffffffffffffffffffff1614611629576115da600085600080611f0a565b6001600360008373ffffffffffffffffffffffffffffffffffffffff1673ffffffffffffffffffffffffffffffffffffffff168152602001908152602001600020600082825403925050819055505b600073ffffffffffffffffffffffffffffffffffffffff168573ffffffffffffffffffffffffffffffffffffffff16146116ac576001600360008773ffffffffffffffffffffffffffffffffffffffff1673ffffffffffffffffffffffffffffffffffffffff168152602001908152602001600020600082825401925050819055505b846002600086815260200190815260200160002060006101000a81548173ffffffffffffffffffffffffffffffffffffffff021916908373ffffffffffffffffffffffffffffffffffffffff160217905550838573ffffffffffffffffffffffffffffffffffffffff168273ffffffffffffffffffffffffffffffffffffffff167fddf252ad1be2c89b69c2b068fc378daa952ba7f163c4a11628f55a4df523b3ef60405160405180910390a4809150509392505050565b600073ffffffffffffffffffffffffffffffffffffffff168273ffffffffffffffffffffffffffffffffffffffff16036117d65760006040517f64a0ae920000000000000000000000000000000000000000000000000000000081526004016117cd919061277c565b60405180910390fd5b60006117e48383600061154a565b9050600073ffffffffffffffffffffffffffffffffffffffff168173ffffffffffffffffffffffffffffffffffffffff160361185757816040517f7e27328900000000000000000000000000000000000000000000000000000000815260040161184e9190612812565b60405180910390fd5b8373ffffffffffffffffffffffffffffffffffffffff168173ffffffffffffffffffffffffffffffffffffffff16146118cb578382826040517f64283d7b0000000000000000000000000000000000000000000000000000000081526004016118c293929190612ec3565b60405180910390fd5b50505050565b6118eb828260405180602001604052806000815250612193565b5050565b6118f7611530565b73ffffffffffffffffffffffffffffffffffffffff16611915610cd6565b73ffffffffffffffffffffffffffffffffffffffff161461197457611938611530565b6040517f118cdaa700000000000000000000000000000000000000000000000000000000815260040161196b919061277c565b60405180910390fd5b565b6000600660009054906101000a900473ffffffffffffffffffffffffffffffffffffffff16905081600660006101000a81548173ffffffffffffffffffffffffffffffffffffffff021916908373ffffffffffffffffffffffffffffffffffffffff1602179055508173ffffffffffffffffffffffffffffffffffffffff168173ffffffffffffffffffffffffffffffffffffffff167f8be0079c531659141344cd1fd0a4f28419497f9722a3daafe3b4186f6b6457e060405160405180910390a35050565b600073ffffffffffffffffffffffffffffffffffffffff168273ffffffffffffffffffffffffffffffffffffffff1603611aad57816040517f5b08ba18000000000000000000000000000000000000000000000000000000008152600401611aa4919061277c565b60405180910390fd5b80600560008573ffffffffffffffffffffffffffffffffffffffff1673ffffffffffffffffffffffffffffffffffffffff16815260200190815260200160002060008473ffffffffffffffffffffffffffffffffffffffff1673ffffffffffffffffffffffffffffffffffffffff16815260200190815260200160002060006101000a81548160ff0219169083151502179055508173ffffffffffffffffffffffffffffffffffffffff168373ffffffffffffffffffffffffffffffffffffffff167f17307eab39ab6107e8899845ad3d59bd9653f200f220920489ca2b5937696c3183604051611b9e919061260b565b60405180910390a3505050565b60008373ffffffffffffffffffffffffffffffffffffffff163b1115611d5c578273ffffffffffffffffffffffffffffffffffffffff1663150b7a02611bef611530565b8685856040518563ffffffff1660e01b8152600401611c11949392919061340e565b6020604051808303816000875af1925050508015611c4d57506040513d601f19601f82011682018060405250810190611c4a919061346f565b60015b611cd1573d8060008114611c7d576040519150601f19603f3d011682016040523d82523d6000602084013e611c82565b606091505b506000815103611cc957836040517f64a0ae92000000000000000000000000000000000000000000000000000000008152600401611cc0919061277c565b60405180910390fd5b805181602001fd5b63150b7a0260e01b7bffffffffffffffffffffffffffffffffffffffffffffffffffffffff1916817bffffffffffffffffffffffffffffffffffffffffffffffffffffffff191614611d5a57836040517f64a0ae92000000000000000000000000000000000000000000000000000000008152600401611d51919061277c565b60405180910390fd5b505b50505050565b606060405180602001604052806000815250905090565b606060006001611d88846121af565b01905060008167ffffffffffffffff811115611da757611da66128ca565b5b6040519080825280601f01601f191660200182016040528015611dd95781602001600182028036833780820191505090505b509050600082602001820190505b600115611e3c578080600190039150507f3031323334353637383961626364656600000000000000000000000000000000600a86061a8153600a8581611e3057611e2f61349c565b5b04945060008503611de7575b819350505050919050565b6000611e56600083600061154a565b9050600073ffffffffffffffffffffffffffffffffffffffff168173ffffffffffffffffffffffffffffffffffffffff1603611ec957816040517f7e273289000000000000000000000000000000000000000000000000000000008152600401611ec09190612812565b60405180910390fd5b5050565b60006002600083815260200190815260200160002060009054906101000a900473ffffffffffffffffffffffffffffffffffffffff169050919050565b8080611f435750600073ffffffffffffffffffffffffffffffffffffffff168273ffffffffffffffffffffffffffffffffffffffff1614155b15612077576000611f538461146b565b9050600073ffffffffffffffffffffffffffffffffffffffff168373ffffffffffffffffffffffffffffffffffffffff1614158015611fbe57508273ffffffffffffffffffffffffffffffffffffffff168173ffffffffffffffffffffffffffffffffffffffff1614155b8015611fd15750611fcf818461113f565b155b1561201357826040517fa9fbf51f00000000000000000000000000000000000000000000000000000000815260040161200a919061277c565b60405180910390fd5b811561207557838573ffffffffffffffffffffffffffffffffffffffff168273ffffffffffffffffffffffffffffffffffffffff167f8c5be1e5ebec7d5bd14f71427d1e84f3dd0314c0f7b2291e5b200ac8c7c3b92560405160405180910390a45b505b836004600085815260200190815260200160002060006101000a81548173ffffffffffffffffffffffffffffffffffffffff021916908373ffffffffffffffffffffffffffffffffffffffff16021790555050505050565b6120da838383612302565b61218e57600073ffffffffffffffffffffffffffffffffffffffff168373ffffffffffffffffffffffffffffffffffffffff160361214f57806040517f7e2732890000000000000000000000000000000000000000000000000000000081526004016121469190612812565b60405180910390fd5b81816040517f177e802f0000000000000000000000000000000000000000000000000000000081526004016121859291906134cb565b60405180910390fd5b505050565b61219d83836123c3565b6121aa6000848484611bab565b505050565b600080600090507a184f03e93ff9f4daa797ed6e38ed64bf6a1f010000000000000000831061220d577a184f03e93ff9f4daa797ed6e38ed64bf6a1f01000000000000000083816122035761220261349c565b5b0492506040810190505b6d04ee2d6d415b85acef8100000000831061224a576d04ee2d6d415b85acef810000000083816122405761223f61349c565b5b0492506020810190505b662386f26fc10000831061227957662386f26fc10000838161226f5761226e61349c565b5b0492506010810190505b6305f5e10083106122a2576305f5e10083816122985761229761349c565b5b0492506008810190505b61271083106122c75761271083816122bd576122bc61349c565b5b0492506004810190505b606483106122ea57606483816122e0576122df61349c565b5b0492506002810190505b600a83106122f9576001810190505b80915050919050565b60008073ffffffffffffffffffffffffffffffffffffffff168373ffffffffffffffffffffffffffffffffffffffff16141580156123ba57508273ffffffffffffffffffffffffffffffffffffffff168473ffffffffffffffffffffffffffffffffffffffff16148061237b575061237a848461113f565b5b806123b957508273ffffffffffffffffffffffffffffffffffffffff166123a1836114f3565b73ffffffffffffffffffffffffffffffffffffffff16145b5b90509392505050565b600073ffffffffffffffffffffffffffffffffffffffff168273ffffffffffffffffffffffffffffffffffffffff16036124355760006040517f64a0ae9200000000000000000000000000000000000000000000000000000000815260040161242c919061277c565b60405180910390fd5b60006124438383600061154a565b9050600073ffffffffffffffffffffffffffffffffffffffff168173ffffffffffffffffffffffffffffffffffffffff16146124b75760006040517f73c6ac6e0000000000000000000000000000000000000000000000000000000081526004016124ae919061277c565b60405180910390fd5b505050565b60405180608001604052806060815260200160608152602001600073ffffffffffffffffffffffffffffffffffffffff168152602001600081525090565b50805461250690612e92565b6000825580601f106125185750612537565b601f016020900490600052602060002090810190612536919061253a565b5b50565b5b8082111561255357600081600090555060010161253b565b5090565b6000604051905090565b600080fd5b600080fd5b60007fffffffff0000000000000000000000000000000000000000000000000000000082169050919050565b6125a08161256b565b81146125ab57600080fd5b50565b6000813590506125bd81612597565b92915050565b6000602082840312156125d9576125d8612561565b5b60006125e7848285016125ae565b91505092915050565b60008115159050919050565b612605816125f0565b82525050565b600060208201905061262060008301846125fc565b92915050565b600081519050919050565b600082825260208201905092915050565b60005b83811015612660578082015181840152602081019050612645565b60008484015250505050565b6000601f19601f8301169050919050565b600061268882612626565b6126928185612631565b93506126a2818560208601612642565b6126ab8161266c565b840191505092915050565b600060208201905081810360008301526126d0818461267d565b905092915050565b6000819050919050565b6126eb816126d8565b81146126f657600080fd5b50565b600081359050612708816126e2565b92915050565b60006020828403121561272457612723612561565b5b6000612732848285016126f9565b91505092915050565b600073ffffffffffffffffffffffffffffffffffffffff82169050919050565b60006127668261273b565b9050919050565b6127768161275b565b82525050565b6000602082019050612791600083018461276d565b92915050565b6127a08161275b565b81146127ab57600080fd5b50565b6000813590506127bd81612797565b92915050565b600080604083850312156127da576127d9612561565b5b60006127e8858286016127ae565b92505060206127f9858286016126f9565b9150509250929050565b61280c816126d8565b82525050565b60006020820190506128276000830184612803565b92915050565b60008060006060848603121561284657612845612561565b5b6000612854868287016127ae565b9350506020612865868287016127ae565b9250506040612876868287016126f9565b9150509250925092565b6000806040838503121561289757612896612561565b5b60006128a5858286016126f9565b92505060206128b6858286016126f9565b9150509250929050565b600080fd5b600080fd5b7f4e487b7100000000000000000000000000000000000000000000000000000000600052604160045260246000fd5b6129028261266c565b810181811067ffffffffffffffff82111715612921576129206128ca565b5b80604052505050565b6000612934612557565b905061294082826128f9565b919050565b600067ffffffffffffffff8211156129605761295f6128ca565b5b6129698261266c565b9050602081019050919050565b82818337600083830152505050565b600061299861299384612945565b61292a565b9050828152602081018484840111156129b4576129b36128c5565b5b6129bf848285612976565b509392505050565b600082601f8301126129dc576129db6128c0565b5b81356129ec848260208601612985565b91505092915050565b600080600060608486031215612a0e57612a0d612561565b5b600084013567ffffffffffffffff811115612a2c57612a2b612566565b5b612a38868287016129c7565b935050602084013567ffffffffffffffff811115612a5957612a58612566565b5b612a65868287016129c7565b9250506040612a76868287016126f9565b9150509250925092565b600060208284031215612a9657612a95612561565b5b6000612aa4848285016127ae565b91505092915050565b612ab6816125f0565b8114612ac157600080fd5b50565b600081359050612ad381612aad565b92915050565b60008060408385031215612af057612aef612561565b5b6000612afe858286016127ae565b9250506020612b0f85828601612ac4565b9150509250929050565b600067ffffffffffffffff821115612b3457612b336128ca565b5b612b3d8261266c565b9050602081019050919050565b6000612b5d612b5884612b19565b61292a565b905082815260208101848484011115612b7957612b786128c5565b5b612b84848285612976565b509392505050565b600082601f830112612ba157612ba06128c0565b5b8135612bb1848260208601612b4a565b91505092915050565b60008060008060808587031215612bd457612bd3612561565b5b6000612be2878288016127ae565b9450506020612bf3878288016127ae565b9350506040612c04878288016126f9565b925050606085013567ffffffffffffffff811115612c2557612c24612566565b5b612c3187828801612b8c565b91505092959194509250565b60006080820190508181036000830152612c57818761267d565b90508181036020830152612c6b818661267d565b9050612c7a604083018561276d565b612c876060830184612803565b95945050505050565b600082825260208201905092915050565b6000612cac82612626565b612cb68185612c90565b9350612cc6818560208601612642565b612ccf8161266c565b840191505092915050565b612ce38161275b565b82525050565b612cf2816126d8565b82525050565b60006080830160008301518482036000860152612d158282612ca1565b91505060208301518482036020860152612d2f8282612ca1565b9150506040830151612d446040860182612cda565b506060830151612d576060860182612ce9565b508091505092915050565b60006020820190508181036000830152612d7c8184612cf8565b905092915050565b60008060408385031215612d9b57612d9a612561565b5b6000612da9858286016127ae565b9250506020612dba858286016127ae565b9150509250929050565b60008060008060808587031215612dde57612ddd612561565b5b6000612dec878288016126f9565b945050602085013567ffffffffffffffff811115612e0d57612e0c612566565b5b612e19878288016129c7565b935050604085013567ffffffffffffffff811115612e3a57612e39612566565b5b612e46878288016129c7565b9250506060612e57878288016126f9565b91505092959194509250565b7f4e487b7100000000000000000000000000000000000000000000000000000000600052602260045260246000fd5b60006002820490506001821680612eaa57607f821691505b602082108103612ebd57612ebc612e63565b5b50919050565b6000606082019050612ed8600083018661276d565b612ee56020830185612803565b612ef2604083018461276d565b949350505050565b7f4e4654206e6f74206f776e65642062792073656c6c6572000000000000000000600082015250565b6000612f30601783612631565b9150612f3b82612efa565b602082019050919050565b60006020820190508181036000830152612f5f81612f23565b9050919050565b7f496e73756666696369656e742066756e64730000000000000000000000000000600082015250565b6000612f9c601283612631565b9150612fa782612f66565b602082019050919050565b60006020820190508181036000830152612fcb81612f8f565b9050919050565b7f596f7520617265206e6f7420746865206f776e6572206f662074686973204e4660008201527f5400000000000000000000000000000000000000000000000000000000000000602082015250565b600061302e602183612631565b915061303982612fd2565b604082019050919050565b6000602082019050818103600083015261305d81613021565b9050919050565b60008190508160005260206000209050919050565b60006020601f8301049050919050565b600082821b905092915050565b6000600883026130c67fffffffffffffffffffffffffffffffffffffffffffffffffffffffffffffffff82613089565b6130d08683613089565b95508019841693508086168417925050509392505050565b6000819050919050565b600061310d613108613103846126d8565b6130e8565b6126d8565b9050919050565b6000819050919050565b613127836130f2565b61313b61313382613114565b848454613096565b825550505050565b600090565b613150613143565b61315b81848461311e565b505050565b5b8181101561317f57613174600082613148565b600181019050613161565b5050565b601f8211156131c45761319581613064565b61319e84613079565b810160208510156131ad578190505b6131c16131b985613079565b830182613160565b50505b505050565b600082821c905092915050565b60006131e7600019846008026131c9565b1980831691505092915050565b600061320083836131d6565b9150826002028217905092915050565b61321982612626565b67ffffffffffffffff811115613232576132316128ca565b5b61323c8254612e92565b613247828285613183565b600060209050601f83116001811461327a5760008415613268578287015190505b61327285826131f4565b8655506132da565b601f19841661328886613064565b60005b828110156132b05784890151825560018201915060208501945060208101905061328b565b868310156132cd57848901516132c9601f8916826131d6565b8355505b6001600288020188555050505b505050505050565b7f4e487b7100000000000000000000000000000000000000000000000000000000600052601160045260246000fd5b600061331c826126d8565b91507fffffffffffffffffffffffffffffffffffffffffffffffffffffffffffffffff820361334e5761334d6132e2565b5b600182019050919050565b600081905092915050565b600061336f82612626565b6133798185613359565b9350613389818560208601612642565b80840191505092915050565b60006133a18285613364565b91506133ad8284613364565b91508190509392505050565b600081519050919050565b600082825260208201905092915050565b60006133e0826133b9565b6133ea81856133c4565b93506133fa818560208601612642565b6134038161266c565b840191505092915050565b6000608082019050613423600083018761276d565b613430602083018661276d565b61343d6040830185612803565b818103606083015261344f81846133d5565b905095945050505050565b60008151905061346981612597565b92915050565b60006020828403121561348557613484612561565b5b60006134938482850161345a565b91505092915050565b7f4e487b7100000000000000000000000000000000000000000000000000000000600052601260045260246000fd5b60006040820190506134e0600083018561276d565b6134ed6020830184612803565b939250505056fea2646970667358221220bde56b817be79be5fb60606f89da2c86a1f27ac2e05480b2832e50ef1484674d64736f6c63430008140033",
    "linkReferences": {},
    "deployedLinkReferences": {}
}